:020000040800F2
:1000000000000120750D0008410C0008450C000897
:10001000490C00084D0C0008510C000800000000BD
:10002000000000000000000000000000550C000867
:10003000590C0008000000005D0C0008610C00086D
:10004000C50D0008C50D0008C50D0008C50D000848
:10005000C50D0008C50D00087D0C0008C50D000881
:10006000C50D0008C50D0008C50D0008C50D000828
:10007000C50D0008C50D0008C50D0008C50D000818
:10008000C50D0008C50D0008C50D000800000000E2
:10009000000000000000000000000000C50D000886
:1000A000C50D0008C50D0008C50D0008C50D0008E8
:1000B000C50D0008C50D0008C50D0008C50D0008D8
:1000C000C50D0008C50D0008C50D0008C50D0008C8
:1000D000C50D0008C50D0008C50D00080000000092
:1000E000C50D0008C50D0008C50D00080000000082
:1000F000000000000000000000000000C50D000826
:1001000000000000C50D0008C50D0008C50D000861
:1001100000000000000000000000000000000000DF
:10012000C50D0008C50D0008C50D00089D0C000890
:10013000C50D0008000000000000000000000000E5
:10014000000000000000000000000000C50D0008D5
:10015000C50D0008C50D0008C50D0008C50D000837
:10016000C50D0008C50D00080000000000000000DB
:10017000000000000000000000000000000000007F
:1001800000000000C50D0008000000000000000095
:04019000C50D000891
:1001A00010B5054C237833B9044B13B10448AFF3B1
:1001B00000800123237010BD2C01002000000000EE
:1001C0002051000808B5034B1BB103490348AFF3A6
:1001D000008008BD00000000300100202051000810
:1001E000034613F8012B002AFBD1181A0138704777
:1001F00001F0FF01102A2BDB10F0070F08D010F8D8
:10020000013B013A8B422DD010F0070F42B3F6D1DB
:10021000F0B441EA012141EA014122F007047FF0F4
:1002200000070023F0E80256083C85EA010586EA4B
:10023000010685FA47F5A3FA87F586FA47F6A5FA87
:1002400087F68EB9EED1F0BC01F0FF0102F0070293
:1002500032B110F8013B013A83EA010313B1F8D13E
:100260000020704701387047002D06BF354603381F
:10027000073815F0010F07D1013015F4807F02BF58
:10028000013015F4C03F0130F0BC0138704700BFA9
:100290007BB972B90029BEBF00204FF0004106E0D3
:1002A00008BF00281CBF6FF000414FF0FF3000F086
:1002B000A7B9ADF1080C6DE904CE002909DB002BCC
:1002C0001ADB00F035F8DDF804E0DDE9022304B0C4
:1002D0007047404261EB4101002B1BDB00F028F826
:1002E000DDF804E0DDE9022304B0404261EB4101A6
:1002F000524263EB43037047524263EB430300F007
:1003000017F8DDF804E0DDE9022304B0404261EBB8
:1003100041017047524263EB430300F009F8DDF8F6
:1003200004E0DDE9022304B0524263EB430370476B
:100330002DE9F047089D04468E46002B4DD18A4298
:10034000944669D9B2FA82F252B101FA02F3C2F1CB
:10035000200120FA01F10CFA02FC41EA030E94405C
:100360004FEA1C48210CBEFBF8F61FFA8CF708FB7D
:1003700016E341EA034306FB07F199420AD91CEB55
:10038000030306F1FF3080F01F81994240F21C8187
:10039000023E63445B1AA4B2B3FBF8F008FB1033CF
:1003A00044EA034400FB07F7A7420AD91CEB040404
:1003B00000F1FF3380F00A81A74240F207816444D4
:1003C000023840EA0640E41B00261DB1D440002359
:1003D000C5E900433146BDE8F0878B4209D9002DBD
:1003E00000F0EF800026C5E9000130463146BDE847
:1003F000F087B3FA83F6002E4AD18B4202D38242B1
:1004000000F2F980841A61EB030301209E46002D5F
:10041000E0D0C5E9004EDDE702B9FFDEB2FA82F2B4
:10042000002A40F09280A1EB0C014FEA1C471FFA12
:100430008CFE0126200CB1FBF7F307FB131140EAF9
:1004400001410EFB03F0884208D91CEB010103F1C6
:10045000FF3802D2884200F2CB804346091AA4B288
:10046000B1FBF7F007FB101144EA01440EFB00FE5C
:10047000A64508D91CEB040400F1FF3102D2A645C1
:1004800000F2BB800846A4EB0E0440EA03409CE760
:10049000C6F12007B34022FA07FC4CEA030C20FA0D
:1004A00007F401FA06F31C43F9404FEA1C4900FA2D
:1004B00006F3B1FBF9F8200C1FFA8CFE09FB1811AA
:1004C00040EA014108FB0EF0884202FA06F20BD91D
:1004D0001CEB010108F1FF3A80F08880884240F26D
:1004E0008580A8F102086144091AA4B2B1FBF9F0B1
:1004F00009FB101144EA014100FB0EFE8E4508D9AC
:100500001CEB010100F1FF346CD28E456AD9023830
:10051000614440EA0840A0FB0294A1EB0E01A14215
:10052000C846A64656D353D05DB1B3EB080261EB83
:100530000E0101FA07F722FA06F3F1401F43C5E95D
:10054000007100263146BDE8F087C2F12003D84093
:100550000CFA02FC21FA03F3914001434FEA1C47D5
:100560001FFA8CFEB3FBF7F007FB10360B0C43EAC7
:10057000064300FB0EF69E4204FA02F408D91CEB77
:10058000030300F1FF382FD29E422DD90238634475
:100590009B1B89B2B3FBF7F607FB163341EA034115
:1005A00006FB0EF38B4208D91CEB010106F1FF3864
:1005B00016D28B4214D9023E6144C91A46EA00465B
:1005C00038E72E46284605E70646E3E61846F8E6ED
:1005D0004B45A9D2B9EB020864EB0C0E0138A3E736
:1005E0004646EAE7204694E74046D1E7D0467BE717
:1005F000023B614432E7304609E76444023842E78F
:10060000704700BF2C4A136823F0070343F002032E
:1006100010B51360136803F00703022BFAD12749C2
:10062000274B0A6822F4404242F400420A601A68EA
:1006300042F480321A601A689203FCD51A68214984
:1006400042F400221A6058681F4A01400A435A6067
:1006500059681B4A21F440315960196841F0807192
:10066000196013689B01FCD59368154C23F0F003C7
:100670009360936823F4E05343F48053936093684A
:1006800023F460439360936823F0030343F0020371
:100690009360A36803F00C03082BFAD10B4802F017
:1006A000EBF80A4802F00AF9D4F88C3023F0807392
:1006B000C4F88C3010BD00BF003C02400070004008
:1006C000003802400080BFFF192A400000BD01052C
:1006D0002DE9F04FC04AC14B1168C14C41F4007183
:1006E0002DED028B1160116841F480611160116879
:1006F00041F480711160596CB94A41F480415964E8
:10070000596CADF2847D01F4804110911099196CFF
:1007100041F0805119641B6C03F080530F930F9BC1
:10072000D168B04B4FF6FF0001400B43D360D36854
:10073000C3F30223C3F107011A1D042928BF0421B2
:10074000062A88BFDA1E4FF0FF3303FA01F398BF81
:100750000022DB4393401B01DBB284F82330FFF718
:1007600051FFA14BA14A1B68A2FB03239B09013B3C
:10077000B3F1807F09D24FF0E022F02053610021D5
:10078000072384F82300916113610025CDE92E55DC
:10079000CDE94F55914A5195136BDFF86882944E1D
:1007A00043F080031363136B03F080031793179BCD
:1007B000136B43F001031363136B03F001031893EE
:1007C000189B136B43F002031363136B03F00203D4
:1007D0001993199B02271C23C8F818304CA9B7613C
:1007E0000C2201234046CDE94C2301244FF000099F
:1007F0004E9701F03DFE4CA91022012340464FF0D8
:100800000208CDE94C23CDE94E89509401F030FE29
:100810004CA9022201233046CDE94C23CDE94E8973
:10082000509401F025FE73490F238A6893FAA3F3CD
:10083000B3FA83F322F00F0204FA03F313438B603D
:100840002EA88DF8BE702E94ADF8BC4001F0B0FD1E
:10085000F16894FAA4F2B2FA82F294FAA4F30320B3
:10086000A240B3FA83F3A34000FA02F221EA0202A3
:1008700004FA03F31343F360326894FAA4F3B3FA6F
:1008800083F3A34000FA03F322EA030394FAA4F4E7
:100890003360534BDFF86C81DB68DFF86CB1564F87
:1008A000C3F30223C3F10702042A03F1040128BFA2
:1008B0000422062988BFDD1E4FF0FF339340DB433F
:1008C00003F00403AB404D49444A444D1B01DBB2E5
:1008D000402081F806330860136B43F480031363F0
:1008E000136B03F4800316933D4B169ADB68C3F336
:1008F0000223C3F107011A1D042928BF0421062A77
:1009000088BFDA1E4FF0FF3303FA01F36FEA0303E7
:1009100098BF002203F0030393401B01374ADBB268
:100920004FF00061002682F83B334CA8516028222A
:10093000002103F071FBCDE931666B6C43F4805309
:100940006B646B6C03F480531393139B2B6B43F01A
:1009500001032B632B6B03F001031493149B2B6B8C
:1009600043F002032B632B6B03F002031593159BDB
:1009700005234FF0030AA0222EA9339340460223F9
:10098000CDE92E23CDF8C0A001F072FD1022022384
:10099000CDE92E2303220023CDE930232EA9002206
:1009A00005231348CDE9322301F062FD144B9A6D03
:1009B00022F0606242F0C0629A659A6D22F0C00235
:1009C00042F040029A659A6D22F440329A659A6D1F
:1009D00022F490721AE000BF003C0240003802404E
:1009E00000ED00E00003FA0500000020D34D621086
:1009F00000040240003801400004004000E100E033
:100A00000064024000000240003001409A659A6D87
:100A100022F400729A659A6D42F480629A659A6D2A
:100A200022F4C05242F400629A659A6D22F4C042E8
:100A300042F400529A65DA6E22F00402DA6600226D
:100A40004FF48273CDE94C239FED6F8B4FF400621E
:100A50000023CDE94E2300224FF40073CDE950234B
:100A60004CA900220A235846CDE954238DED528B20
:100A700001F0A2FDDBF8043024AC23F01003CBF826
:100A800004302022C4E90066C4E9026626613146CA
:100A90004CA803F0C1FACDE92E66CDE93066CDE968
:100AA00032662B6CDFF888B143F002032B642B6CA9
:100AB00003F002031193119B40F2E7332380D1230B
:100AC0002146A360384601F0AFFD3B684FF08049F6
:100AD00023F080033B60D9F818349FED4D7B43F041
:100AE0000803C9F818348DED4C7B9FED4B7B4CAA65
:100AF000012138468DED4E7B509601F0E1FDD9F88D
:100B0000183423F00403C9F818347B68DFF8249103
:100B100023F070037B60BB6823F08003BB602B6B0A
:100B200043F001032B632B6B03F001031293129B21
:100B300040220223CDE92E232EA900220223404683
:100B4000CDE932238DED308B01F092FC0823238216
:100B5000042323831023238433A3D3E90023C4E98C
:100B600000232F4BC4F814800FCB0DF1680C0DF14E
:100B7000240E8CE80F00C4E902A8C4F81C80DFF83A
:100B8000B8A0DFF8B8808EE80F004FF49B760227FC
:100B9000CDE90167CDE905ABCDE90389F0250794DF
:100BA000204C0095089733462A464CA9206800F04F
:100BB0009BFA0646206000F097FB4FF47F01304619
:100BC00000F0F4FC164B03F110040FCC1EAD0FC562
:100BD00094E803001EAA85E8030014212EA803F060
:100BE00015F8012331462EA88DF8E03001F0C0FE43
:100BF00031462EA802F0BAFC31462EA802F0D8FDEC
:100C0000FEE700BFAFF3008000000000000000001E
:100C1000600000000000000000000000680000000C
:100C200038510008500100200030014000640240AB
:100C3000A92300087D230008A12300084123000800
:100C4000FEE700BFFEE700BFFEE700BFFEE700BF14
:100C5000FEE700BF704700BF704700BF704700BF8E
:100C600008B5044B186803F001F9034A136801330F
:100C7000136008BD5401002048010020054B5A694B
:100C8000D20700D47047044A01211068596103F06B
:100C9000C3B800BF003C01405401002001480321BB
:100CA00000F092B8006402400120704708B503F0DC
:100CB0006FF9162303604FF0FF3008BD08B503F04D
:100CC00067F916230360FEE770B5161E07DD0C46B4
:100CD0008D19AFF3008004F8010BA542F9D130461D
:100CE00070BD00BF70B5161E07DD0C468D1914F8D7
:100CF000010BAFF30080AC42F9D1304670BD00BFAC
:100D00004FF0FF30704700BF4FF400534B6000209E
:100D1000704700BF012070470020704710B50C4C91
:100D20000C4B0D492268591A2AB11044884207D841
:100D30002060104610BD094A226010448842F7D94D
:100D400003F026F90C234FF0FF320360104610BD6C
:100D50004C01002000000120000400006801002078
:100D6000034AD2F8883043F47003C2F888307047E1
:100D700000ED00E0DFF834D00D480E490E4A0023A4
:100D800002E0D458C4500433C4188C42F9D30B4A3F
:100D90000B4C002301E013600432A242FBD3FFF7A7
:100DA000DFFF03F0FBF8FFF793FC70470000012022
:100DB000000000202C0100209C6000082C01002075
:100DC00068010020FEE7000010B53D4B84468E46CA
:100DD00093E8030082B002AB03E903000EF10802BE
:100DE0006A44BEF1030F12F8082C4FF03F0303FAD8
:100DF00002F388BF0CF10C01324A98BF0CF10801D4
:100E00000B60136833B19A6A944505D0D3F84C3619
:100E1000002BF8D102B010BDDA6A9645F6D11A6CF3
:100E200022B15269B3F844101142EFD1264A12F8A8
:100E30000E005CF8002022F001024CF800205CF863
:100E40000020D2070CEB000103D500BF0A68D407CD
:100E5000FBD4D3F83C26D2B95A6A516821F002017A
:100E600051609168080604D500BF5A6A9168090666
:100E7000FAD493F8411621B9196C11B1B3F8443082
:100E80008B61136823F04003136002B010BDB2F50C
:100E9000803F0BD24A600022C3F83C265CF8003049
:100EA00043F001034CF8003002B010BDA2F57F42C0
:100EB000FF3A4FF6FF744C60C3F83C26EEE700BFE4
:100EC00060510008500100207C520008F8B5456AC6
:100ED0002B685B0604461ED4226C1AB1B4F8443069
:100EE0001B0493612B6823F42C432B602B6843F085
:100EF00040032B600B78012B13D0022B69D0002B01
:100F000031D0236C13B1B4F844209A612B6823F0DC
:100F100040032B60F8BD00BF636A1B685F06DBD52A
:100F2000F9E74E7801F1020E002E58D070460EEB14
:100F3000060C636AA76B10F8012BA18FB961DA6008
:100F40009A68970707D400BF9A689107FBD59A68FB
:100F5000120603D500BF9A681206FBD46045E8D19B
:100F60000EEB0601C6E7A28F636AA66B48781204EF
:100F7000B261D8609A68960707D400BF9A68900754
:100F8000FBD59A68120603D500BF9A681206FBD4F7
:100F90008E7801F1030E16B370460EEB060C636AF1
:100FA000A76B10F8012BA18FB961DA609A689707D7
:100FB00007D400BF9A689107FBD59A68120603D53B
:100FC00000BF9A681206FBD46045E8D10EEB06011B
:100FD00090E748788E1C01F05FFC31468AE7714645
:100FE00088E700BF70B504464089A589A669014419
:100FF0002A4488B292B21D46114613460246B047B3
:1010000001462046FFF762FF364994F84800C5F3D1
:10101000C40201EA15216B090A4303F4FC631A4375
:10102000012892B201D152BA92B2636A19684E068F
:101030003ED494F8411629B9256C1DB1B4F844107A
:101040000904A96194F8421611B9A16BA58F8D61AD
:101050001968022821F42C41196031D01868D1B2E6
:1010600040F040001860D9609968890703D400BF38
:1010700099688907FBD5120ADA609A68920707D443
:1010800000BF9A689607FBD59A68100603D500BF83
:101090009A681006FBD494F8412622B9226C12B14A
:1010A000B4F8441091611A6822F040021A6070BDD1
:1010B00000BF616A09684D06FAD494F84800B8E7A1
:1010C000196841F400611960196841F04001196024
:1010D000DA609A689007DBD400BF9A689507FBD561
:1010E000D6E700BF00F8FFFF2DE9F84F0C46BDF82A
:1010F00028A0BDF82C909DF830809DF848B00029BC
:1011000000F0DA8000210546164620464FF4CA62F8
:101110001F4602F081FFDDF844C084F848B0BCE807
:101120000F0004F1240EAEE80F00BCE80F00AEE89B
:101130000F00DCF80030CEF80030A36A002B3CD062
:10114000E26A6849895C5A5822F001025A505A589A
:10115000D20703EB010005D500BF0268D207FBD41C
:1011600094F848B0BBF1010F0BD0BBF1020F0ED1C8
:101170005A5822F4F0425A505A5842F420525A50C7
:1011800005E05A5822F4F0425A505A585A505A58C8
:1011900022F4802222F00E025A50426922F080028C
:1011A00042615A5842F010025A505A5822F40072C2
:1011B0005A505A5842F480625A50B742394638BFA2
:1011C0003146BE4228BF3E46B8F1000F43D1A6804B
:1011D000E180A4F800A0A4F80290C4F80A80564563
:1011E00054D8494552D80D9B002B4FD00E9B002B55
:1011F0004CD00D9A62610E9AA2610F9AE26113AB14
:10120000109A22620FCB4FF0000C04F14C0604F14F
:10121000600784F8088086E80F0084F840C6C4F8A8
:101220004CC6C4F848C6E765002D45D0D5F84C3605
:1012300053B101221D46D3F84C36511C1046CAB298
:10124000002BF7D184F84006C4F848562046C5F86C
:101250004C46BDE8F88FB8F1020F20D0B8F1010F6D
:101260002DD0B8F1030F11D15346A9EB010032463E
:10127000A4F80090A4F802A0CA4699460023A180D1
:10128000E68060810E46A3811146A8E74FF4CA624A
:101290000021204602F0C0FE0020BDE8F88FAAEB36
:1012A00006036381A9EB0103A680E180A4F800A0F6
:1012B000A4F80290A38192E72046BDE8F88FAAEB3C
:1012C0000603A38153463246A4F80090A4F802A076
:1012D000CA4699460023A180E68063810E461146E6
:1012E0007DE700BF7C520008036B10B504465BB17C
:1012F000828E12049A61192001F0CEFA236BA28E1D
:101300009A61192001F0C8FA6369207A984701466A
:101310002046FFF7DBFD94F85A10E26C64290B4677
:1013200028BF642384F85A300AB3D16A174801FBF6
:1013300003F3216DA0FB0303B1F5807F4FEA531344
:1013400022D00FD801291AD0102908BF936313683F
:10135000DB0706D4136A19431162136843F00103D3
:10136000136010BDB1F5805FF1D11364EFE7636DD9
:10137000002BF6D0B4F8582019B19A6110BD536310
:10138000E5E712049A61F9E7D363E0E71F85EB51C3
:10139000C0887047F0B59C4683B06145BDF82030E9
:1013A000099E8E46044601D9E6468C469A4202D9E9
:1013B00011461A460B46A188714540F29680E08896
:1013C000904240F2928061459CBF01F1FF311FFACB
:1013D00081FC98429CBF00F1FF3083B2A1896089F3
:1013E000A7699D1A0B4411440CEB000270449BB298
:1013F000ACEB0E0C89B292B2013580B20CFB0555F4
:10140000B84701462046FFF761FD94F841362BB9F5
:10141000226C1AB1B4F844301B04936194F842363C
:1014200013B9A36BA28F9A615D4B94F8482003EA2D
:101430001623C6F3C4017609194306F4FC6631434A
:10144000012A636A89B200F082801868A4F8441601
:1014500020F42C401860022A1A6848D142F4006235
:101460001A601A6842F040021A60A26A002A00F06C
:101470008980E66A4B484C4910F806C003C902AFA0
:1014800007E9030006F10801032E0DEB0106944461
:1014900016F8080C8CBF0C3208323F2181401160D5
:1014A0005A6842F002025A600C33CCF8083004F259
:1014B0004463CCF80C30DCF8003023F40073CCF833
:1014C0000030DCF80030B5F5803F23F48063CCF8C1
:1014D00000304DD20023CCF80450C4F83C36DCF880
:1014E000003043F00103CCF8003003B0F0BD42F00F
:1014F00040021A60A26A002ABBD1C8B2090AADB183
:10150000D8609A68960703D400BF9A689707FBD5FE
:10151000D9609A68920703D400BF9A689607FBD5F2
:10152000013DEDD19A68120603D500BF9A681206F4
:10153000FBD494F8412622B9226C12B1B4F84410BD
:1015400091611A6822F040021A6003B0F0BD1A6877
:1015500049BA22F42C42A4F844161A601A6842F0E0
:1015600040021A60A26A89B2002AC6D06D0080E7E4
:10157000A5F57F454FF6FF73FF3DCCF80430C4F866
:101580003C56ACE7002DD1D0D9609A68920703D4BD
:1015900000BF9A689707FBD5013DF5D1C6E700BFAC
:1015A00000F8FFFF7C5200086051000810B5C488A5
:1015B0008388013C82B00022A4B2013BCDE9004106
:1015C0009BB21146FFF7E6FE02B010BD30B585882C
:1015D0008D420BDDC588954208DD00298E4605DB6E
:1015E000002A03DBBDE83040FFF7FCBC30BD00BF84
:1015F0002DE9F04F1F4683B0B942BDF93030DDF818
:1016000034B00D46164600F099809A427AD0991A65
:101610000029A7EB0502B8BF4942002AB8BF5242D1
:1016200091429C463446B846AE4640F38C80BC4658
:101630002C461F463546434676469046BD420BDD56
:10164000A4EB0C04B646AC4684EAE4781E463D465C
:10165000A8EBE47873466746A7EB0509C9F3C034E5
:101660004FF6FF7A04FA89F49E42B8BF4FF0010AA0
:1016700091421FFA88F81FFA89F94FEA640434DCB2
:1016800083889D420DDAC3889E420ADA002D3246D5
:101690005B4606DB002E04DB29460190FFF7A2FC27
:1016A0000198A4EB08031CB20135002C2DB29BB2AB
:1016B00003DA56444B4436B21CB2BD42E0DD03B0FF
:1016C000BDE8F08F31460190FFF78CFC0198A4EB48
:1016D00008031CB20135002C2DB29BB203DA56442C
:1016E0004B4436B21CB2BD42E9DC8388B342EEDD26
:1016F000C388AB42EBDD002E2A465B46E7DB002DBC
:10170000E0DAE4E7B94220DD002DD8DB8288BA4276
:10171000D5DD002BD3DBC288B242D0DD26EAE672EB
:1017200027EAE7719BB20C9392B2ABB289B2CDF8C3
:1017300034B003B0BDE8F04FFFF72CBE9A42E3DDB2
:101740001E461346E0E7884678E73A4615460F46B8
:10175000DAE700BF2DE9F04383B00446DDF82C90B2
:10176000BDF9288000920E461546CDF804901F461C
:10177000FFF73EFF33462A4631462046CDE9008931
:10178000FFF736FF31463B4642462046CDE9008909
:10179000FFF72EFF3B462A4639462046CDE90A8907
:1017A00003B0BDE8F043FFF723BF00BF30B4994258
:1017B000BDF908C0039D02DD0C461946234662456B
:1017C00002DD14466246A446002B08DB84888C4266
:1017D00005DDBCF1000F02DBC488944201DC30BCA3
:1017E00070471FFA8CF422EAE27221EAE171039554
:1017F00002949BB230BC92B289B2FFF7CBBD00BF5E
:101800002DE9F04F99B01546BDF98870BDF98C905F
:10181000BDF990600790BA4288469A4600F3E0808E
:10182000B24200F3E680BE42C0F2EA800799CB885C
:10183000AB4240F3D280002EC0F2CF80C245524668
:10184000B8BF424612B24A450F92B8BF4A46120488
:1018500000F1C380C2455246A8BF424612B24A4573
:101860000D928988A8BF4A4612B2914240F3B580D2
:1018700025EAE574B34224B240F307810896334663
:10188000A34240F3AA80A8EB09031A460C93A31BBA
:1018900002FB03F1A9EB0A031A460B93E31B02FBBD
:1018A00003F30393AAEB08031A46CA450A93A4EB71
:1018B000050302FB03FB5246A8BF4A46B7423B461C
:1018C000A8BF33461BB2CA45119313B20E935346B9
:1018D000B8BF4B46B74210933B46B8BF3346CDF82E
:1018E00014A0139212938A46AF4200F0D280059B57
:1018F000434500F028817B1B9BFBF3F343441BB261
:10190000002263F30F0263F31F4214920D9A9A426E
:1019100003DC0F9A9A4280F22D8103224FF0020CD1
:10192000002309920122E64604921846B74200F0CD
:10193000DB80059A4A4500F0EC800399F21B91FB8D
:10194000F2F205990A4412B20692049A18A901EB20
:101950004201069A21F8102C18A901EB430121F845
:10196000102C0E998A4207DBBDF940108A4203DC35
:10197000099B049370466346AE4200F09F80C145C8
:101980004AD0049918AA02EB430302EB4101AA1BB7
:101990009AFBF2F24A4412B2C14521F8102C23F806
:1019A000102C4B46A8BF43461BB29A4206DBC145EA
:1019B0004B46B8BF43461BB29A4245DD002845D18D
:1019C0000C9B0B9A9A44039B134403930A9B013488
:1019D0009B44089B24B2A34286D119B0BDE8F08F86
:1019E000B74214DD32464B462E46C1461546984650
:1019F0001CE735461646BE42C8468946BFF616AFB6
:101A00003A4653463746CA46164699460EE73D467D
:101A1000D04617468A4606E7AE423246A8BF2A4657
:101A200012B2A242CADCAE423246B8BF2A4612B255
:101A3000A242C3DB049918AA02EB410102EB430363
:101A400021F8109C23F8109C0230C0B2BDF9501050
:101A50000B460DF1600C821E0CEB400030F9120CAD
:101A60008342B8BF03460CEB420030F9100C8142B0
:101A7000A8BF014612F0FF00EBD1259A0798CDE9E7
:101A800000422246FFF7B4FD9AE7013B1BB20893E0
:101A9000F6E6A7427FF441AF0D9BADF85030B74258
:101AA0000F9BADF852304FF0040C6DD0052302208F
:101AB000099303230493E64603463AE7A6427FF4DC
:101AC0007DAF18AA049902EB4303C14502EB410123
:101AD0004A46A8BF4246C14523F8102C4B46B8BF22
:101AE000434621F8103CAFE7A7427FF445AF18AA60
:101AF00002EB4303139A23F8102C049A18AB03EB60
:101B00004201109B21F8103C099B049370466346E8
:101B100032E7119AA2423FF72FAFBDF94820A24207
:101B2000FFF62AAF049918AA02EB4101059A21F8A1
:101B3000102C18A901EB4303704623F8102C099BC5
:101B40000493634618E7AF423B46A8BF2B461BB23F
:101B5000A3423FF7E2AEAF423B46B8BF2B461BB2B3
:101B6000A342FFF6DAAE059A002362F30F0362F395
:101B70001F43149305224FF0040C02230992032201
:101B8000E64604921846D1E60523099303230493FD
:101B9000E6460223ABE700BF2DE9F04F85B09CB2CB
:101BA0000093C4EBC4335B001BB287880193C4F17C
:101BB00001031BB28F42984606460E9B15468A4685
:101BC0001FFA82FB22DDB0F806C004EB0B0212B252
:101BD000944540F38281002918DB002AC0F28F81EE
:101BE000FFF700FAB7880E9BABEB0402574512B221
:101BF0000CDDB6F806C0944508DD002A06DB514628
:101C000030460E93FFF7EEF9B7880E9B1FFA8AFA5B
:101C100004EB0A0109B2B94210DAB6F806C0AC45C5
:101C20001FDD0029C0F26481002DC0F261812A46C7
:101C300030460E93FFF7D6F9B7880E9BAAEB040443
:101C400021B2B9420DDAB6F806C0AC4509DD00296B
:101C500007DB002D05DB2A4630460E93FFF7C2F95D
:101C60000E9B009A002A40F30B8100273046DAE0F1
:101C7000019A00990232013918FA82F88CB212B234
:101C800009B2009101921FFA88F80137BDB2B0F88D
:101C900004C00AEB050908EB45080FFA89F908F1B9
:101CA00001080BEB0402CC453FB20FFA88F812B2E0
:101CB00040F3E980C188914240F3C580B9F1000F3B
:101CC000C0F2C180002AC0F2BE8049460E93029045
:101CD0000392FFF787F902980E9BB0F804C0AAEBB5
:101CE000050636B2664580F2F080C188039A9142BB
:101CF00040F3A280002EC0F29F80002AC0F29C8098
:101D000031460E930290FFF76DF902980E9BB0F8E2
:101D100004C0ABEB0402CC4512B214DDC1888A4288
:101D200023DAB9F1000FC0F2B980002AC0F2B68000
:101D30004946CDE902020E93FFF754F902980E9B33
:101D4000B0F804C0039A66450FDAC1888A420CDAFB
:101D5000002E0ADB002A08DB31460E930290FFF7C3
:101D600041F902980E9BB0F804C00AEB04090FFA7F
:101D700089F90BEB0506E14536B279DAC188B14243
:101D80006BDDB9F1000FC0F28D80002EC0F296809D
:101D9000324649460E930290FFF724F902980E9BB3
:101DA000B0F804C0AAEB040424B264457FDAC18809
:101DB000B14257DD002C55DB002E53DB3246214665
:101DC0000E930290FFF70EF902980E9BB0F804C034
:101DD000ABEB0505CC452DB211DDC1888D421FDA74
:101DE000B9F1000F57DB002D55DB49462A460E930B
:101DF0000290FFF7F7F802980E9BB0F804C0644514
:101E00000EDAC1888D420BDA002C09DB002D07DBCE
:101E10002A4621460E930290FFF7E4F80E9B0298A3
:101E2000009ABA422CDDB8F1000FBFF621AFBDF821
:101E300000401FFA88F828E7ABEB0402CC4512B249
:101E40003FF76DAF82E7AAEB050636B2B4453FF720
:101E50004EAFABEB040212B261E7AAEB040424B26A
:101E6000644524DAABEB0505E1452DB2B6DBC9E7E5
:101E7000AAEB040424B2644599DB009ABA42D2DC8E
:101E800005B0BDE8F08FAAEB050636B2B4457FF782
:101E90006CAFC1882BE76445B6DBC1E76645FFF64A
:101EA00057AF62E7AAEB040424B2644582DBE14544
:101EB000B6DAC188ABEB05052DB28FE7AAEB0404B7
:101EC00024B26445FFF674AFF4E7E145BFF64DAFC9
:101ED000ABEB0402C18812B221E7ABEB040212B2F1
:101EE0006245BFF693AEBAF1000FBFF686AE8DE63F
:101EF000AAEB040421B2B942FFF6A9AEB1E6ABEBFE
:101F0000040212B294453FF778AE7FE62DE9F04F18
:101F100089B09CB21E460393C4EBC4335B001FFA26
:101F200081F91BB2DDF848B00793A9EB040104EB7B
:101F300009030092CDF804B01BB209B282461546DF
:101F4000FFF756FB002E5CDDC4F101041FFA85F893
:101F5000504624B2DA460027C3464CE0079B039A5A
:101F60000233013A14FA83F496B21BB212B203920E
:101F7000A4B207930137BDB20BEB060209EB0508CB
:101F800012B20FFA88F8A9EB050109B2CDE9002ACF
:101F90004346CDE90401FFF72BFB05990498ABEB11
:101FA000060212B20B46CDE9002A4146FFF720FB9C
:101FB00005EB0B0212B209EB0601A9EB060309B20D
:101FC0001BB2CDE9002A049806930591FFF710FB98
:101FD000ABEB050212B2DDE905130498CDE9002A46
:101FE000FFF706FB039B049804EB45043FB2013462
:101FF000BB4224B205DD002CB0DABDF80C60A4B2FF
:10200000B8E709B0BDE8F08F2DE9F04F85B09446F0
:102010000191AF4A0F99DDF8388002EA1122C1F32D
:10202000C40A4AEA020A06464A0990F848009DF89E
:10203000441002F4FC624AEA020A0128109A1FFACC
:102040008AFA03D19AFA9AFA1FFA8AFAA04CC2F3D2
:10205000C40904EA1224520949EA040902F4FC62A0
:1020600049EA020201281FFA82F903D199FA99F983
:102070001FFA89F998F808B09B4503D898F8092009
:102080009A4271D24FF0000B98F80000471EFF10E3
:102090000137042F65DCD8F8042098F8013007FBDD
:1020A0000BFB03FB0B2BFA00013A012505FA02F2A8
:1020B000029200295DD0002B53D04FF0000A012F6F
:1020C000014615463046E1465646CDF8388043D0A5
:1020D000022F00F0CD80032F00F0CD80042F08BF29
:1020E000DBF800A0BB4400293BD00FFA89F2002A9C
:1020F00029DB019C4FF0000803E001344145A4B204
:102100001FDD0AFA08F32B4208F10108F5D0838895
:102110000FFA84FC6345F0DDB0F806E00F9B9645AE
:10212000EBDDBCF1000FE8DB6146CDE90202FEF712
:1021300059FF0E9B197801344145DDE90202A4B232
:10214000DFDC0E9B5B7801369E420ADA09F1010959
:10215000012F1FFA89F9BBD19BF800A0BB440029CD
:10216000C3D105B0BDE8F08FA3EB0B0B5FFA8BFB7F
:102170008AE7B189019D74890CF1FF320A44134446
:102180006A1E2244024428466144204492B29BB213
:1021900089B2B569746A80B2A84701463046FEF735
:1021A00095FE326C1AB1B6F844301B049361B36BE0
:1021B000B28F9A61236823F040032360236823F4DD
:1021C0002C43236096F84830022B61D0236843F0FB
:1021D0004003236098F8013093B3012F98F8003042
:1021E000029D4FF0000C27D0022F62D0032F63D046
:1021F000DBF80000BB441BB3002200FA02F1A36825
:10220000294214BF514649469B0703D400BFA36827
:102210009B07FBD596F84830022B3ED1E16098F839
:10222000003001329342E8DC98F801200CF1010CF7
:10223000624505DD012FD7D19BF80000DAE700BF2A
:10224000A3689A07FBD5A3681B0603D500BFA36844
:102250001B06FBD42368326C23F040032360002A62
:102260003FF47FAFB6F84430936105B0BDE8F08F1E
:10227000BBF800A036E79BF802A09BF801204FEACC
:102280000A4A4AEA022A9BF800204AEA020A29E797
:10229000236843F40063236098E7CBB2E360A3684C
:1022A0009B07C1F30F21B9D400BFA3689B07FBD5DF
:1022B000B4E7BBF800009DE79BF802009BF8012003
:1022C000000440EA02209BF80020104392E700BF80
:1022D00000F8FFFF2DE9F04F1F4685B01B780E9EDA
:1022E0009DF844A0DDE90F8905460C46934603B3EB
:1022F00096F800C0AA88A4449445284609DD717860
:10230000EC888B441FFA8BFB5944A1424FF0000428
:102310000FDC2146CDE9029ACDE900685A46FFF765
:1023200073FE96F800C017F8013F6444A4B2002B76
:10233000E0D1EC81A5F810B005B0BDE8F08F00BF8A
:1023400058B102280ED0012811D003280A4814BF22
:102350000023F82380F8413070470748482380F86D
:102360004130704704489C2380F841307047024850
:102370002C2380F8413070471000002010B4074C27
:1023800049BA618120715BBA000A110AE07061717B
:102390002046A271A3815DF8044B7047A400002081
:1023A00000487047B800002000487047C000002077
:1023B00010B403460079A8B1186880B15A79012A8F
:1023C0002FD0022A1BD01AB301229B79002B3AD0BE
:1023D000022B30D0032B44D0012B38D001205DF8E4
:1023E000044B7047214A1C68116821EA04011160FE
:1023F000536823EA040353605DF8044B70471B499C
:102400000C6804430C604C68044300224C60DCE719
:1024100016494C6824EA00044C600C6804430C60C4
:10242000D3E712490C6824EA00040C604C680443AA
:1024300000224C60C9E70D4B996821EA00019960C0
:10244000D9680843D86010465DF8044B7047074BC5
:10245000D96821EA0001D96099680843986010465C
:10246000BDE7024B99680143E9E700BF003C01402A
:102470002DE9F0470C6894FAA4F2B2FA82F234FA29
:1024800002F37DD04FF0010E4FF0030C4FF00F0A16
:1024900017E0D0F8008093FAA3F7B7FA87F793FA1A
:1024A000A3F3B3FA83F37F000CFA07F75B0028EA83
:1024B000070705FA03F33B430360013234FA02F3E2
:1024C0005ED00EFA02F32340F7D04D686F1E012F45
:1024D0001FD8D0F8088093FAA3F7B7FA87F793FAD2
:1024E000A3F98E68B9FA89F97F000CFA07F74FEA69
:1024F000490928EA070706FA09F947EA0907876040
:102500004768CE6827EA030706FB03F847EA08078F
:102510004760D0F80C8093FAA3F7B7FA87F793FADD
:10252000A3F90E69B9FA89F97F000CFA07F74FEAA7
:10253000490928EA070706FA09F947EA0907022DB7
:10254000C760A6D193FAA3F7B7FA87F7072F1ADC6B
:10255000D0F8208093FAA3F7B7FA87F793FAA3F994
:102560004E69B9FA89F9BF000AFA07F74FEA8909F3
:1025700028EA070706FA09F947EA0907076288E720
:102580000020BDE8F087D0F824901F0A97FAA7F83A
:10259000B8FA88F897FAA7F74E69B7FA87F74FEABB
:1025A00088080AFA08F8BF0029EA080806FA07F7B7
:1025B00048EA070747626CE70246006810F04000EF
:1025C00028D1136830B423F47F4CD1E900352B4374
:1025D0008D684C692B43CD682B430D692B438D6966
:1025E00023432B43CD692B430D6A2CF0BF0C2B43A7
:1025F00043EA0C031360536823F0040343EA1443D3
:10260000B5F5005F53600BD0D36923F4006330BC91
:10261000D3617047D36923F400630120D36170470D
:102620008B8C1361F0E700BF244A0368904230B4FA
:1026300034D0B0F1804F1DD0A2F57C42904219D029
:1026400002F58062904215D002F58062904211D06E
:1026500002F59A32904211D002F5806290420DD07C
:1026600002F58062904209D08C680A880360C462D7
:1026700082620CE04A6823F070031343CD688C68D3
:102680000A8823F440732B430360C4628262436967
:1026900043F00103436130BC002070474C68CA68B6
:1026A00023F07003234323F44073134303608A68C9
:1026B0000B88C26283620B690363E8E70000014094
:1026C000B1F5807F30B470D026D801294ED01029C2
:1026D00048D1036A156923F010030362036A446852
:1026E000816923F0200343EA0513156821F4E641CC
:1026F00041EA0521556823F0100343EA05135D4DB7
:10270000A84200F09C80D568446000228161856306
:10271000036230BC10467047B1F5805F22D1036A76
:10272000156923F480530362036A4468C16923F482
:10273000005343EA0533156821F4E64141EA0521D7
:10274000556823F4805343EA05334A4DA84200F00C
:102750008B80D56844600022C1610564036230BC8F
:10276000104670470122104630BC7047036A156955
:1027700023F001030362036A4468816923F00203C2
:102780002B43156821F073012943556823F0010399
:102790002B43384DA8423ED0D56844600022816169
:1027A0004563036230BC10467047036A156923F421
:1027B00080730362036A4468C16923F4007343EAC7
:1027C0000523156821F073012943556823F48073AC
:1027D00043EA0523274DA84208D0D568446000226B
:1027E000C161C563036230BC10467047556923F46C
:1027F000006343EA8523956924F4805444EA051470
:10280000956823F4806343EA8523D56924F4005452
:1028100044EA4514E1E7556923F0080343EA8503D8
:10282000956924F480742C43956823F0040343EAEB
:102830008503D56924F4007444EA4504ACE755697E
:1028400023F0800343EA8513956924F4806444EA05
:102850008504956823F0400343EA8513D56924F481
:10286000006444EAC5044EE7956924F4804444EAD0
:1028700085146EE700000140064BA3FB00304FF0CB
:10288000E0228309013B0020052153619061116121
:10289000704700BFD34D62104FF0E02382B01B6938
:1028A0000193421C019B18BF01304FF0E0221369D5
:1028B000DB03FCD50138FAD102B07047014B186038
:1028C000704700BF000000202DE9F04714464D6816
:1028D000E36852680646086805FB03FC23684FEA74
:1028E000E07E8A4600FB02F2A168EF170EFB03228E
:1028F000A3FB0030D4E90C8907FB01CC0244A1FB07
:10290000051E20695B18F444616942EB0C0218183B
:1029100042EB01014B464246FDF7BAFC3060DAF863
:102920000000E169D4F820C000FB01FE616A424664
:1029300005FB01F807FB0C87A169ACFB055C67444C
:102940004FEAE07C0CFB01EEA1FB00C1A06AE46A47
:102950001CEB050C714441EB07011CEB00004B46DE
:1029600041EB0401FDF794FC7060BDE8F08700BF07
:102970002DE9F04F2DED028BCA888B88CFB00D4624
:1029800008EE101A511F89B2ADF8DA10ADF8E21056
:102990005908053B9BB28146ADF8DC30ADF8E0301C
:1029A000A2F11403520805244FF00510ADF8E620FB
:1029B000ADF8D230142209F118033590ADF8D840A3
:1029C000ADF8DE40ADF8E410ADF8CC10ADF8D010A5
:1029D000ADF8CE200F93A8466FF07F414046FEF73A
:1029E000E5FD6FF07F420020CDE90220204A0092F1
:1029F000FF2300221146019340461E4BFFF76AFC5D
:102A00004FF47A60FFF748FF6FF07F414046FEF7D2
:102A1000CDFD44AB35AC3AAE1D4600230093B4F96E
:102A200002A0B4F900106788B4F800B005915246CE
:102A300040460523FFF7B0F84FF47F030599019353
:102A40007B1D1BB27A1F009340460B4612B2FEF765
:102A5000CFFD4FF47F03CDE900A3ABF105010BF1EE
:102A6000050352461BB209B24046FEF7C1FD04E021
:102A700004000020E45D000800BF99F82930002B15
:102A8000FAD0484601F07EF999F82930002BF8D1A8
:102A9000D9F82020032AEFD99A460F9B93E8030028
:102AA000C6E900B785E803006FF07F414046FEF7B6
:102AB0007DFD40F21450FFF7EFFE04343AABA34221
:102AC00006F1080605F10805A7D1DDE9452144987E
:102AD000479B00FB00F501FB01F42E194FEAE4745B
:102AE00044EBE57402FB02FB069403FB03F41BEBCF
:102AF00004054FEAE47444EBEB7B079503FB01F418
:102B000002FB00F52F194FEAE47444EBE5740897D3
:102B1000099447184FEAE17444EBE07C3C9C05962D
:102B20003A9ECDF82CC0D51804FB01FC4FEAE374A3
:102B300006FB00FE0A9744EBE2770D971EEB0C07AD
:102B40000E974FEAEC7C3C9F3D9C0C954CEBEE7C49
:102B5000CDF840C006FB02FE07FB03FC1EEB0C0792
:102B60003B9D11973C9F4FEAEC7C05FB00F004FB7A
:102B700001F14CEBEE7E4FEAE77CF71905FB02F220
:102B800004FB03F34CEBE67C129747184FEAE17124
:102B9000489E139741EBE071D0184FEAE37315900C
:102BA00043EBE270059A169006FB06F328194FEAEC
:102BB000E47444EBE5749D181491179049990595B8
:102BC000069A079D0E9F42EBE373069301FB01F308
:102BD000089A5D194BEBE37B01FB06F307959D1803
:102BE000099A42EBE3720A9B0892F2180B9B099236
:102BF00043EBE6730A930C9BCB180B930D9B43EBB3
:102C0000E1730C93DDE93E2302FB06F0C7190D9733
:102C1000109F47EBE0770E97119F02FB01F0C71959
:102C20004EEBE07E1298109710184CEBE27C139A52
:102C3000119003FB06F6B21815981292149A03FB32
:102C400001F142EBE6760A181698139240EBE17117
:102C5000149117980D9F191844EBE374DDE94A238A
:102C60000598159102FB02F116940C18069805942C
:102C700040EBE1700690079803FB03F108184BEB5B
:102C8000E17B079003FB02F108984D1940EBE174DA
:102C900009990894511817910A9941EBE27118911A
:102CA0000B99591819910C9941EBE3710C91DDE9DD
:102CB000400100FB02F4E7190D970E9F47EBE47704
:102CC0000E97109F00FB03F4E7194EEBE47E119C76
:102CD000109704194CEBE07C1298119401FB02F25E
:102CE00010181A9046EBE276139A169C1B9601FB7D
:102CF00003F39A181C92149A069842EBE3731D93FF
:102D0000159BCB181E93DDE94C2344EBE176059C23
:102D10001F9602FB02F73C19099440EBE7740798F1
:102D2000129403FB03F631180A9108980D9F03FBD8
:102D300002F14BEBE67611EB050B40EBE1711798D6
:102D4000189D101845EBE2750B95199D06905819C2
:102D500005900C9DDDE9424045EBE375079504FBCA
:102D600002F5EF1908970E9F47EBE5751395109F35
:102D700004FB03F5EF194EEBE57E119D0C976519E9
:102D80004CEBE47C1A9CCDF85CC000FB02F21419F9
:102D900010941B9C0E9544EBE27C1C9ACDF854C019
:102DA00000FB03F39D181D9A099C0B9F0D9542EBA8
:102DB000E37C1E9ACDF858C083181F9A119342EBFA
:102DC000E07C0A9B129A0698CDF850E004FB06F5C9
:102DD00003FB025E0BFB07F5079ACDF860C000FB12
:102DE00001531993129D04FB02F3059A0BFB01FC9E
:102DF000CDF86CC002FB053C0A9BCDF874C003FB08
:102E000007F3079F00FB063C0BFB07F3CDF878C0E8
:102E100002FB013CCDF888C0139D0A9B089F03FB71
:102E200005F307FB063C149F0C9DCDF88CC00BFBF3
:102E300007F305FB013C3B460B9FCDF890C000FB20
:102E400003F305FB073CDDE90775139BCDF880C054
:102E500002FB03F305FB073C149B129DCDF884C0D5
:102E600004FB03F30C9C109F04FB053C139B089D83
:102E7000159CCDF894C00BFB03F305FB013C0A9BAA
:102E8000169DCDF898C003FB04F307FB063C0D9C90
:102E9000CDF8A8C02B460BFB05F600FB03F30B98FF
:102EA00004FB016CCDF8ACC004FB003C1598CDF8D8
:102EB000A0C02546164602FB00F4079A07FB024C09
:102EC000CDF8A4C0169A099B129C03FB02F305FBE4
:102ED000043C33AC0BFB00F31C94069CCDF8B4C04F
:102EE00007FB0131199F2E91ABFB04C427441997AE
:102EF000079FCDF868C00CFB07FC199FC04B06FB71
:102F000007CCDDE90957ABFB0B64A5FB07757544DE
:102F1000B7EB060E76461B9FCDF848E04FEA8606D3
:102F20001B96179E04EB470465EB04050EFB06F4A5
:102F30000E9EAF0047EA9E7706FB054E189E129C38
:102F4000CDF89CE004FB06F4119E06FB054E1A9E8C
:102F5000059CCDF8BCE0A6FB044EF4441B9E14EB8C
:102F6000040E129C4CEB0C0C361945EB07051EEBBE
:102F700006044CEB0506059F099D30962C941D9C7C
:102F8000A5FB07C52C44079D1D94664606FB05F569
:102F900007FB04541F940A9F069C1E9ECDF86CC02C
:102FA000A7FB047EB6440B9E2C9D07FB06FC04FB8E
:102FB0000EC41B9E1E94059CA6FB04C4B5EB0C0519
:102FC0002C951F9D309E254466EB0506069D2C9C86
:102FD000A7FB055C641B1F941E9C644466EB040500
:102FE0001F9CC9E91845059CABFB0445B4EB070CD5
:102FF000229F139C3D4465EB0E0E6646089D06FB22
:1030000004F4674605FB0E4C159CCDF87CC006FB0E
:1030100004F4109E06FB0E4C179CCDF8C0C03E4633
:1030200007FB04F40E9F139607FB0E4C189CCDF87B
:1030300078C006FB04F4119E06FB0E4C0A9E239CEE
:10304000CDF8B0C0A6FB05752544109CA6FB04C4B2
:103050002A9ECDF8C4C0264422960C9EABFB0646A1
:103060003C1B249F3E4465EB0605AE00A7003F19BC
:1030700046EA947645EB06050C9C069E2397A6FB34
:1030800004C4209ECDF880C034190A94089E059C83
:103090000A9FA4FB06E4219E34192646BCEB0E04CD
:1030A00067EB060C079F159604FB07F6059F07FBC9
:1030B0000C66A4FB074C239F66443C1946EB0505B0
:1030C0000E9F139EA6FB0767A6191E9C274447EB7D
:1030D000050CDDE91A74C9E90C6C3C1B179E199F9D
:1030E0001D9D67EB050704FB06F50E9E06FB075CBE
:1030F000149DCDF85CC004FB05F60C9D05FB07662E
:103100001496189E04FB06F5119E06FB075C169D9F
:103110000D9ECDF860C004FB05F506FB075C0C9E18
:10312000099D259FCDF864C0A5FB06C52F440C97CB
:10313000A4FB0675149E1A972E441496099D0D9EA5
:10314000A5FB06751B972D9F7D191695089D269F3B
:10315000ABFB05653D440C9FBCEB060667EB050524
:10316000AF004FEA860C47EA96771CEB060645EB64
:1031700007050C95209DBEEB050709970A9D159F35
:1031800067EB050C099F0B9D07FB05FE069F07FBE0
:103190000CEC3D46099FA7FB05E70C9D16EB0E06C0
:1031A0006744099647EB0507139E089DA6FB05E5B6
:1031B0001F9E35440E9E0895A4FB065C099E761959
:1031C000179DAC444CEB0707C9E90E670E9F129E92
:1031D000089DA6FB076716EB0E0C279E374447EBAE
:1031E00005071A9D1CEB0506149D45EB0707C9E969
:1031F0001067DDE911562F9FA6FB05C502E000BF51
:10320000585E00087D19CDF85CC00E950D9D319F6C
:10321000ABFB05567D1B2B9F3E44229F67EB0606AA
:10322000B7004FEA850C1CEB050C47EA957746EB97
:1032300007071497109F2E9D069ECDF848C0ABFB44
:1032400007EB05EB0B0C0D9DCDF828C0A6FB05B5D3
:10325000289E2E440D9D0896199EA4FB05C5751940
:10326000119E1095189DCDF868C0A4FB06C42C19BA
:10327000139D0C942C9CCDF854C0A5FB06C6264487
:1032800009962E46CDF844C0A6FB07C4309ECDF863
:103290004CC034190D94059C299EA4FB07C4BBEBBC
:1032A0000C0534442E46079D079606FB05F5089E3F
:1032B00066EB0407059E06FB0755079FA7FB0676EE
:1032C0000596129EF719059E3544149E45EB06059A
:1032D000119EBE1905961B9F099E46EB0505B7EB8F
:1032E0000E0E0A9E169F67EB0607059EC9E912653A
:1032F000BE004FEA8E0546EA9E7615EB0E0E47EBB2
:1033000006060B9D089FBCEB0B0C64EB07040CFB43
:1033100005F7069D05FB0474ACFB05C73C44159FEF
:103320001EEB0C0544EB060415EB070C0C9F179ED7
:1033300047EB0404139FF719DDE90D5646EB05062C
:103340001A9D7F19109D45EB0606FF25C9E914C497
:10335000C9E9167601956FF07F45CDF80CA002956E
:103360007F4D0095524651464046FEF7B3FF4FF45D
:103370007A60FFF791FA6FF07F414046FEF716F949
:10338000DDF870B0CDF814A000230093BBF90070F5
:10339000BBF90250BBF80260BBF800402A46394630
:1033A00040460523FEF7F8FB4FF47F030193731D9E
:1033B0000A93721F1BB20992009339463B4640465E
:1033C00012B2FEF715F94FF47F03611FCDE90053E8
:1033D000631D089307912A461BB209B24046FEF7C7
:1033E00007F900E000BF99F82930002BFAD04846D1
:1033F00000F0C8FC99F82930002BF8D1D9F820301A
:10340000032BEFD9D9E90645D9F83430D9F8301073
:1034100004FB03F0D9F83C30E61705FB03F2D9F8BA
:103420003830069606FB01004FEAE57AA1FB0461FD
:103430000AFB03220144A3FB0530F3180244D9E937
:103440001867D9F8400041EB0202D9F84410181867
:1034500042EB01013B463246FCF71AFF3246D9F8EF
:103460005460D9F84C103A9005FB06FC3B46069E8A
:103470000746D9F8480004FB01F106FB0011A0FB48
:1034800004400144D9F850000AFB00CAA0FB05051E
:1034900020185544D9F8584041EB0505D9F85C107F
:1034A000001945EB0101FCF7F3FE079B3B90BB4283
:1034B00035DC089BBB4232DB099B83422FDC059B3A
:1034C0000A9A8242B8BF012305936FF07F414046BC
:1034D000FEF76CF840F21450FFF7DEF90BF1040B25
:1034E00035AB9B457FF450AFDDF814A0BAF1000F67
:1034F00018D06FF07F420021CDE90221184A0092D6
:103500004FF47F03002201934046164B1146FEF70D
:10351000E1FE4FF4FA60FFF7BFF9FFF75DBA012350
:103520000593D2E76FF07F440D4A0092FF23514686
:1035300018EE100A019352460B4BCDE9024AFEF7F2
:10354000C9FE4FF4FA60FFF7A7F918EE100A2146FA
:103550004FB0BDEC028BBDE8F04FFEF727B800BFBF
:1035600004000020E05E0008D05E00082DE9F04F66
:103570002DED028B0123ADB0864F80F82830082353
:103580000D46044605930FCF0BAE0FC697E80F000C
:1035900086E80F002846FDF7FBFE6FF07F41C0F381
:1035A000CF0B2846FEF702F8ABF102031AB24FF038
:1035B0000009ABF1040A08EE102A059F0694C846DC
:1035C0000FFA8AFA1FFA88F60BEB0604A4B2A31EC0
:1035D0001BB20022CDE9003200210FFA88F218EE6A
:1035E000103A2846FEF7B6F82CAB03EB8903043CEF
:1035F00053F8843C24B2B21CCDE9004312B25346C6
:1036000002212846FEF7D2F8013FD84409F101090A
:10361000D8D14FEACB030793CBF102025E4B009364
:1036200001206FF07F4302EBCB02CDE9023001971E
:103630005A4B069C059792B202212846FEF74AFE95
:10364000574B93E803000DF14C0888E803005C2217
:10365000394615A84FF0FF3600F0DEFC04F11809DA
:1036600004F1300A37461CE0581EEB88634501DC44
:1036700003F1FF3C411C40F085807A1C4FD0731C45
:103680004DD0059B01930FFA8CF332B239B20093FF
:10369000074603B228466646FDF7AAFF0120FFF75A
:1036A000FBF8204600F06EFB94F82930002B40D048
:1036B00009A852464946FFF707F90A9B099823EAE9
:1036C000E37CAB8820EAE0708342CDDDEB88634584
:1036D000CEDD5845D1DA079B9C45CEDABCFBFBF327
:1036E0002CAA02EB8302072B52F8842C0592C4D13A
:1036F0002C4A01920021284A0092FF23CDE9023191
:103700002846294B96223221FEF7E4FD4FF47A70C9
:10371000FFF7C2F82DB0BDEC028BBDE8F08F01B20F
:103720000746059B0FFA8CF228466646FDF74EFFCA
:10373000B4E7226A206F06930DF1530102FB00F0FB
:103740000A2200F0F1FC4046FCF74AFD174E069BAA
:10375000144A01920146104A30680393009248F8D7
:1037600001001A464144FF230293B3888B80B3794A
:103770008B712846434659464FF0FF36FEF7AAFDA7
:1037800037468BE783457FF778AFBCF1FF3F3FF4C7
:1037900074AFA0E76851000804000020F45E000840
:1037A0008851000800FFFF00FC5E0008145F00085D
:1037B0002DE9F04F2DED028BADF5497D8B880593FA
:1037C000CB88069301230B93994D00F1300308EE4B
:1037D000903A00F11803834608EE103A8A460FCD5E
:1037E0000FAE0FC655F8183B337095E8070019AFB8
:1037F00003C700243A7021465B220DF16D00CDF81D
:103800005D40CDF84D40CDF85140CDF85540CDF854
:1038100059401894049400F0FFFB864B8BF8284025
:103820001B680A930DF5477939E0834B0193834B6D
:1038300000930024FF23CDE9023422460FAB21463A
:103840005046FEF747FD584600F084FB7C4B9842FB
:10385000064622D00B9B952B00F3D68032AA42F865
:10386000230001330B930A221BA9304600F05CFCB5
:1038700019A8FCF7B5FC704A0192704A0092714A8F
:103880000346106819AA0021D050FF23CDE9023168
:10389000504613460D22FEF71DFD664B1D60049B2E
:1038A0000233049300F0C0FB044600F0BDFB059B0F
:1038B000A4B203FB04F4804600F0B6FB069A09901C
:1038C0001FFA88F802FB08F800F0AEFB089000F041
:1038D000ABFB079000F0A8FB054600F0A5FB0646F1
:1038E00000F0A2FB074600F09FFB079A089B09998E
:1038F00003904FF0460CBFB2B6B2ADB20CFB07F767
:103900000CFB06F60CFB05F5240C4FEA184892B2A6
:103910009BB289B20CFB03F30CFB02F20CFB01F12E
:10392000A8EB1747A4EB164608EB154504EB12422B
:10393000A8EB1348A4EB114136B22DB23FB213B23B
:1039400009B20FFA88F20196009550460297FDF7EA
:1039500057FF00F069FB044600F066FB054600F0E7
:1039600063FB064600F060FBA1B20090069C059840
:10397000B3B2AAB200FB01F1C3EB031304FB02F2E2
:10398000DB13121409145046FEF7C0FA584600F033
:10399000F9F99BF87530012B1CD0022B2DD0254B4B
:1039A0001D680A9BEB1AB3F57A7FFFF43EAF0A223B
:1039B00013A9049800F0B8FB0FA8FCF711FC1D4AEE
:1039C0001568204A0A95034610680FAAD0500023B4
:1039D00004932AE718EE902A18EE101A0DA8FEF7A5
:1039E00073FF6FF07F430093BDF93820BDF93410A9
:1039F00014235046FEF78AFAD1E700F015FB014682
:103A00005046FDF7D3FDCAE74FF4157233A932A82B
:103A100000F0E8FAC79631AB53F8042F4B45144435
:103A2000FAD1094B83FB0436E417C4EB26161AE7D8
:103A3000EC5100084801002000FFFF0004000020B6
:103A40006079FEFF1C5F0008B5814E1B2DE9F04F29
:103A500003681A6887B012F04002029240F0CD80ED
:103A60001A6803921A6822F42C4222F0BB021A60F0
:103A70001A6842F004021A6002791C68D20002F04F
:103A8000380222431A601A68846842F040021A60C1
:103A900082891204A26190F916404FF0000C64452F
:103AA0000EDB6209920002F1604202F5614204F00D
:103AB0001F041568E54015F00105029540F093805C
:103AC0004FF0000E4FF00108054604AEDFF838B1A4
:103AD0008DF8101040468DF811E0744632460DF115
:103AE00012070DF11709A846D9609968CD0703D4CC
:103AF00000BF9968C907FBD50132BA4208BF3246F8
:103B00005CB1E507D9680DD5212C5FFA81FC2ED078
:103B10000134222C16D01178E6E7D96801245FFA27
:103B200081FCF8E7212C5FFA81FA20D0002858D1D7
:103B3000012CEDD04AEA0C210134C1F3CB01222C37
:103B40008E44E8D1029A4FEA2E1362B198F91620FA
:103B5000002A08DB54092A4802F01F02012101FA59
:103B600002F240F82420184607B0BDE8F08F00218B
:103B7000D9609968C90703D400BF9968CD07FBD500
:103B8000DBF80010ADF81410090C8DF81610D96888
:103B900005AD5FFA81FA15F8011BD9609968C9076C
:103BA00003D400BF9968C907FBD5A945F3D1D8F85C
:103BB000001001918D682D0604D500BF8D682D067B
:103BC000FBD40191D8F80810B8F80C508D61019918
:103BD0000D6825F040050D60019D039929600028BE
:103BE000A6D0002094E7012505FA04F4C2F880402D
:103BF000BFF34F8FBFF36F8F62E7024BB3E700BF96
:103C000000E100E06079FEFF785200082DE9F04104
:103C100082B0154688467822002100AF044600F0A5
:103C2000FBF90FCD2646C4F870800FC6524B1C60BE
:103C3000236895E803001A68520686E80300EC46FC
:103C400000F1818018681A68A189A66822F42C42C4
:103C500022F0BB021A601A6842F004021A6022794C
:103C60001D68D20002F038022A431A601D680A0457
:103C700045F040051D60B26194F9161000296EDB15
:103C80004A09920002F1604202F5614201F01F010F
:103C90001568CD4015F0010563D18022DA6099687E
:103CA0003A80CE0703D400BF9A68D107FBD57A7853
:103CB000D968DA609A68D20703D400BF9A68D1073E
:103CC000FBD50022D968DA609A68D60703D400BF12
:103CD0009A68D207FBD5294AD9681268BA80120CB3
:103CE000BA71391D07F1070E11F8012BDA609A68D5
:103CF000D60703D400BF9A68D207FBD58E45F3D10F
:103D0000226893681E0603D500BF93681906FBD48A
:103D1000A368A1899961136823F0400313601060C0
:103D2000C5B194F91630002B14DB5809144901224F
:103D300003F01F0302FA03F341F820300837E54689
:103D4000BD46BDE8F08123681A685206E5467FF556
:103D500079AFF8E70837E546BD46BDE8F0810025B4
:103D60009BE7012606FA01F1C2F88010BFF34F8FDE
:103D7000BFF36F8F91E700BF540100207852000815
:103D800000E100E070B590F828508DB90369828A8F
:103D90001B691A4204460ED001250021626A236F76
:103DA00084F82910A4F874502262E366284670BD96
:103DB0000025284670BDD321FFF748FE9321064613
:103DC0002046FFF743FE134B9E4212D0984210D07C
:103DD0002369A28A1B691A42DED194F87530012248
:103DE00084F829203BB984F87520C4E90660284688
:103DF00070BD0225DDE7012BF7D1226F636A02FB5C
:103E000003F340F2DB52934284BF022384F87530FF
:103E1000EBE700BF6079FEFF28B30269838A12696D
:103E2000134020D190F91610436210B40122046FA0
:103E300080F868200029C46610DB4B099B0003F161
:103E4000604303F5614301F01F018A40C3F88021FC
:103E5000C3F88020BFF34F8FBFF36F8FBFF34F8F37
:103E60005DF8044B7047BFF34F8F704738B338B5D8
:103E700090F868300446FBB1C36E013BC366BBB922
:103E800090F87410026FC266E1B990F8283083B1DF
:103E90000369818A1B6919422BD0616A2162002063
:103EA000012384F8290084F87430E266BFF34F8F51
:103EB00038BD636A01336362BFF34F8F38BDBFF310
:103EC0004F8F704790F9162080F87430002A80F8E0
:103ED0006830F1DB53099B0003F1604303F5614354
:103EE00002F01F02012101FA02F2C3F880211A60D8
:103EF000E2E7D321FFF7AAFD932105462046FFF70D
:103F0000A5FD134B9D42D4D09842D2D02369A28AFA
:103F10001B691A420BD194F87530012284F82920CC
:103F20003BB9636A84F87520C4E90650C2E7226F82
:103F3000B3E7012B636AF7D1226F40F2DB5103FB39
:103F400002F28A4284BF022284F87520ECE700BFA7
:103F50006079FEFF38B587210546FFF777FDF72129
:103F600004462846FFF772FD084B9C420AD098424F
:103F70000AD0001B41F6A11303FB00F000136FF4FD
:103F80008873C418204638BD0446FBE76079FEFFFD
:103F9000014B1868704700BFC800002070B50D4D78
:103FA0000D4C641BA4100026A64209D10B4D0C4CED
:103FB00001F0B6F8641BA4100026A64205D170BD1E
:103FC00055F8043B98470136EEE755F8043B98470F
:103FD0000136F2E7946000089460000894600008DD
:103FE00098600008884210B501EB020402D98442AF
:103FF000234607D8431EA14208D011F8012B03F82D
:10400000012FF8E7024401468A4200D110BD13F89F
:10401000014D02F8014DF7E702440346934200D1F7
:10402000704703F8011BF9E7164B10B51C68A36B2A
:10403000B3B9182000F0AAF8A06328B90246124BC1
:1040400012484E2100F072F8114A124BC0E90023C9
:10405000114B83600B23838101220023C0E90423D9
:10406000A46B0E4A206963690D49424301FB032298
:10407000A0FB0101431C42EB0100C4E9043020F025
:10408000004010BDC8000020245F00083B5F00080E
:104090000E33CDAB34126DE6ECDE05002DF4515835
:1040A0002D7F954CF0B51F4C8BB005460B466E46E8
:1040B00004F1200C20686168374603C70834644562
:1040C0003E46F7D121793971911E20683860222946
:1040D0004FF0000104D919700B4618460BB0F0BD23
:1040E000581E8446B5FBF2F702FB175628366E447D
:1040F0000C4616F8286C0CF8016F2E46B24201F1FE
:1041000001013D46EED900225A541919A51AAA42B6
:10411000E3DA10F8015F0E780670013201F80159F8
:10412000F4E700BF965F0008FFF7BCBF1FB5144659
:104130001A46094B1B680546D8684CB1074B0091DD
:10414000CDE9013406492B4600F00EF800F0C4FC1E
:10415000044B1C46F3E700BFC8000020BB5F00080B
:10416000C85F0008F65F00080EB403B5014603AB54
:10417000054853F8042B0068019300F019F902B0C8
:104180005DF804EB03B07047C8000020024B014605
:10419000186800F06FB800BFC800002037B50029CC
:1041A00044D051F8043C0190002BA1F10404B8BFA5
:1041B000E41800F0B9FE1E4A0198136833B9636031
:1041C000146003B0BDE8304000F0B4BEA34208D98B
:1041D000256861198B4201BF19685B684919216024
:1041E000EDE71A465B680BB1A342FAD9116855187E
:1041F000A5420BD1246821445418A3421160E0D198
:104200001C685B68536021441160DAE702D90C2313
:104210000360D6E7256861198B4204BF19685B68A3
:10422000636004BF491921605460CAE703B030BD20
:104230005801002070B50E4E0C463168054611B984
:1042400000F07AFB30602146284600F075FB431CE5
:104250000AD0C41C24F00304A04207D0211A284627
:1042600000F06AFB013001D14FF0FF34204670BDF1
:104270005C0100202DE9F041CD1C25F00305083537
:104280000C2D38BF0C25002D074601DBA94205D9AE
:104290000C233B6000263046BDE8F0812E4E00F036
:1042A00043FE33681C4634BB29463846FFF7C2FF3D
:1042B000431C04464DD134682646002E40D1236865
:1042C0003146384604EB030800F036FB80453AD10E
:1042D000216803356D1A25F0030508350C2D38BF0C
:1042E0000C2529463846FFF7A5FF01302BD023685F
:1042F0002B4423600EE02268521B1ED40B2A16D9D1
:104300006119A342256018BF5960636808BF316016
:1043100062514B60384604F10B0600F00BFE26F0AC
:104320000706231DF21AB6D09B1BA350B3E76268A1
:10433000A3420CBF32605A60ECE723466468B2E7E0
:1043400034467668B9E70C233B60384600F0F2FD4E
:10435000A1E72560DEE700BF580100209368013B1C
:10436000002B10B4936008DA9469A34201DB0A2998
:1043700003D15DF8044B00F0EFBA1368581C1060CD
:10438000197008465DF8044B7047F8B506460F46AD
:104390001446D518AC4201D1002007E014F8011BE7
:1043A0003A463046FFF7DAFF431CF3D1F8BD000070
:1043B0002DE9F04F0D469DB014469846064618B1BB
:1043C00083690BB900F0AAFC894B9D421BD175682B
:1043D0006B6ED90705D4AB899A0502D4A86D00F09D
:1043E0003BFDAB891B0701D52B69EBB9294630464C
:1043F00000F004FBC0B16B6EDC070ED54FF0FF3050
:104400001DB0BDE8F08F7B4B9D4201D1B568DFE761
:10441000794B9D4208BFF568DAE7AB899805EDD482
:10442000A86D00F01AFDE9E70023099320238DF819
:104430002930CDF80C803023DFF8C0818DF82A3088
:104440004FF0010923469A4613F8012B0AB1252A99
:10445000F9D1BAEB040B0BD05B4622462946304615
:10446000FFF793FF013000F0AA80099A5A4409929D
:104470009AF80030002B00F0A28000234FF0FF32AA
:10448000CDE905230AF1010A049307938DF853300F
:104490001A935446052214F8011B5848FBF7A8FE4E
:1044A000049AD8B9D10644BF20238DF8533013079E
:1044B00044BF2B238DF853309AF800302A2B15D0A7
:1044C000079A544600204FF00A0C214611F8013B90
:1044D000303B092B4ED9B0B1079214E0A0EB080392
:1044E00009FA03F313430493A246D2E7039B191D71
:1044F0001B680391002BBBBF5B4242F00202079393
:104500000793B8BF049223782E2B0CD163782A2B03
:1045100035D1039B1A1D1B680392002BB8BF4FF0C7
:10452000FF3302340593DFF8E4A0217803225046DC
:10453000FBF75EFE40B14023A0EB0A0003FA00F057
:10454000049B03430134049314F8011B2C488DF899
:1045500028100622FBF74CFE00283FD0294B1BBB3E
:10456000039B073323F0070308330393099B3B4462
:10457000099367E70CFB02320C460120A5E70023F4
:104580000134059319464FF00A0C204610F8012B10
:10459000303A092A03D9002BC5D00591C3E70CFB9B
:1045A000012104460123F0E703AB00932A46164B92
:1045B00004A93046AFF300800746781CD6D16B6E55
:1045C000D90705D4AB899A0502D4A86D00F045FC43
:1045D000AB895B063FF512AF099811E703AB009377
:1045E0002A46094B04A9304600F080F8E4E700BFF2
:1045F0004C6000086C6000082C600008F75F000841
:1046000001600008000000008B430008FD5F000807
:104610002DE9F047164699468A680B69DDF8208037
:104620009342B8BF1346336091F8432007460C46C7
:104630000AB1013333602368990642BF33680233FD
:104640003360256815F0060506D104F1190AE36800
:1046500032689B1AAB4226DC94F84320131E226872
:1046600018BF012392062BD404F143024946384671
:10467000C04701301ED02368E568326803F00603A6
:10468000042B08BFAD1AA36822690CBF25EAE575A3
:1046900000259342C4BF9B1AED1800261A34B54278
:1046A0001AD1002008E00123524649463846C04747
:1046B000013003D14FF0FF30BDE8F0870135C6E788
:1046C000E1185A1C302081F84300224494F8451028
:1046D00082F843100233C7E7012322464946384691
:1046E000C0470130E6D00136D9E700002DE9FF4789
:1046F0000F7E0C9D782F914680460C469A4601F11C
:10470000430207D8622F0AD8002F00F0D880582F14
:1047100000F0A38004F1420584F842703AE0A7F16A
:104720006303152BF6D801A151F823F08547000843
:104730009947000815470008154700081547000865
:104740001547000899470008154700081547000855
:104750001547000815470008A5480008C947000884
:10476000874800081547000815470008C748000893
:1047700015470008C94700081547000815470008F5
:104780008F4800082B681A1D1B682A6004F1420537
:1047900084F842300123A3E020682968060601F16D
:1047A00004030AD50E682B60002E03DA2D2376420F
:1047B00084F843305E480A2319E00E682B6010F03D
:1047C000400F18BF36B2EFE72B682068191D29602B
:1047D000010601D51E6802E04606FBD51E88544836
:1047E0006F2F0CBF08230A23002184F8431065684B
:1047F000A560002DA2BF216821F0040121600EB93F
:10480000002D4DD01546B6FBF3F103FB1167C75DD4
:1048100005F8017D3746BB420E46F4D9082B0BD173
:104820002368DE0708D5236961689942DEBF30231B
:1048300005F8013C05F1FF35521B2261CDF800A0BF
:104840004B4603AA21464046FFF7E2FE01304CD119
:104850004FF0FF3004B0BDE8F087354881F845706F
:104860002968236851F8046B29601D0614D5DF07F9
:1048700044BF43F0200323601EB9236823F02003C4
:1048800023601023B0E7236843F0200323607823DC
:10489000284884F84530E3E7590648BFB6B2E6E752
:1048A0001546BBE72B6826686169181D2860350628
:1048B0001B6801D5196002E07006FBD51980002342
:1048C00023611546BAE72B681A1D2A601D686268C5
:1048D00000212846FBF78CFC08B1401B6060636830
:1048E0002361002384F84330A8E723692A46494618
:1048F0004046D0470130ABD023689B0713D4E06813
:10490000039B9842B8BF1846A4E7012332464946A4
:104910004046D04701309BD00135E36803995B1ACC
:10492000AB42F2DCEBE7002504F11906F5E700BF26
:10493000086000081960000838B5064D00230446D9
:1049400008462B60FCF7EAF9431C02D12B6803B13F
:10495000236038BD64010020F8B50E4614460546B4
:1049600018B183690BB900F0D9F9214B9C422BD1C6
:104970006C68A369A360A3891A072FD523696BB359
:1049800023692068C01A6369F6B28342374604DCA3
:104990002146284600F02EF930BBA368013BA360F6
:1049A00023685A1C22601E7063690130834204D060
:1049B000A389DB0706D50A2E04D12146284600F03C
:1049C00019F988B93846F8BD0A4B9C4201D1AC6848
:1049D000CFE7094B9C4208BFEC68CAE7214628464E
:1049E00000F00CF80028CBD04FF0FF37EAE700BF0B
:1049F0004C6000086C6000082C600008324B70B5F9
:104A00001D6806460C4625B1AB6913B9284600F06F
:104A100085F92E4B9C420FD16C68A389B4F90C2008
:104A200019072CD4DD0611D40923336042F040036A
:104A3000A3814FF0FF303EE0254B9C4201D1AC6892
:104A4000EBE7244B9C4208BFEC68E6E7580712D519
:104A5000616B41B104F14403994202D03046FFF743
:104A60009DFB00236363A38923F02403A381002318
:104A7000636023692360A38943F00803A38123694A
:104A80004BB9A38903F42073B3F5007F03D021460B
:104A9000304600F009FAA089B4F90C2010F00103A7
:104AA0000AD00023A36063695B42A361236943B911
:104AB00010F08000BAD170BD810758BF6369A36050
:104AC000F4E70020F7E700BFC80000204C600008B2
:104AD0006C6000082C60000808B5062000F058FA49
:104AE0000120FCF7EBF800008A892DE9F04105462A
:104AF00010070C4658D44B68002B05DC0B6C002BC0
:104B000002DC0020BDE8F081E66A002EF9D0002327
:104B100012F480522F682B6032D0606DA3895A073F
:104B200005D56368C01A636B0BB1236CC01A0023F0
:104B30000246E66A216A2846B047431CA38906D18B
:104B400029681D292CD82A4ACA40D60728D5002210
:104B50006260D9042269226004D5421C01D12B680D
:104B600003B96065616B2F600029CAD004F144036A
:104B7000994202D02846FFF711FB00206063C1E78D
:104B8000216A01232846B047411CC7D12B68002B5E
:104B9000C4D01D2B01D0162B01D12F60B1E7A38902
:104BA00043F04003A381ADE70F69002FA9D093071D
:104BB0000E6808BF4B690F6018BF0023A6EB0708FB
:104BC0008B60B8F1000F9CDD216AA66A43463A4625
:104BD0002846B047002806DCA38943F04003A381A0
:104BE0004FF0FF308EE70744A8EB0008E9E700BF6D
:104BF0000100402038B50B6905460C4613B9002565
:104C0000284638BD18B183690BB900F087F8144BFA
:104C10009C421BD16C68B4F90C30002BEFD0626E53
:104C2000D00704D4990502D4A06D00F015F92846E8
:104C30002146FFF759FF636EDA070546E0D4A389E2
:104C40009B05DDD4A06D00F008F9D9E7054B9C4227
:104C500001D1AC68DFE7044B9C4208BFEC68DAE79F
:104C60004C6000086C6000082C600008002310B540
:104C70000446C0E90033C0E90433836081814366A0
:104C8000C2818361194608225C30FFF7C5F9054BE4
:104C90006362054BA362054BE362054B2462236309
:104CA00010BD00BFC94F0008EB4F0008235000089B
:104CB00047500008014900F0AFB800BFF54B0008AD
:104CC00070B568224D1E55430E4605F17401FFF77D
:104CD000D1FA044640B10021C0E900160C30A060B2
:104CE00005F16802FFF798F9204670BD014800F011
:104CF000B3B800BF61010020014800F0AEB800BFAA
:104D000061010020014800F0A7B800BF6201002047
:104D1000014800F0A2B800BF6201002010B50446AF
:104D2000FFF7F0FFA3691BB1BDE81040FFF7F0BF2C
:104D3000C4E912332365134B134A1B68A262A342D2
:104D400004BF0123A361204600F020F860602046E4
:104D500000F01CF8A060204600F018F80022E06087
:104D600004216068FFF782FFA06801220921FFF794
:104D70007DFFE06802221221FFF778FF0123A36183
:104D8000D2E700BF205F0008B54C0008F8B5074621
:104D9000FFF7ACFF1E4B1E68B36913B93046FFF72F
:104DA000BDFF4836D6E90134013B03D533680BB368
:104DB0003668F7E7B4F90C50D5B9164BE36004F147
:104DC0005800656600F047F8FFF796FFC4E9015503
:104DD000C4E904552560A5610822294604F15C0058
:104DE000FFF71AF9C4E90D55C4E912552046F8BD7C
:104DF0006834D9E704213846FFF762FF0446306083
:104E00000028D5D1FFF778FF0C233B60EEE700BF09
:104E1000205F00080100FFFF2DE9F84306468846A1
:104E200000F148040027D4E90195B9F1010905D53D
:104E30002468002CF7D13846BDE8F883AB89012BF4
:104E400007D9B5F90E30013303D029463046C047A3
:104E500007436835E9E770477047704770B50E46FD
:104E6000B1F90E10002996B014461D4608DAB6F9BD
:104E70000C3000222A601A0610D44FF480630EE032
:104E80006A4600F007F90028F1DB019A02F470424B
:104E9000A2F500535A425A412A60EEE7402300200F
:104EA000236016B070BD00008B8973B59D07064660
:104EB0000C4607D504F14703236023610123636196
:104EC00002B070BD01AB6A46FFF7C8FF0099054606
:104ED0003046FFF7CFF948B9B4F90C309A05EFD452
:104EE00023F0030343F00203A381E3E70D4BB36216
:104EF000A389206043F08003A381009B6361019B31
:104F000020615BB1B4F90E10304600F0D5F828B13D
:104F1000A38923F0030343F00103A381A089054380
:104F2000A581CDE7B54C00080148FFF795BF00BF4C
:104F3000600100200148FFF790BF00BF6001002022
:104F40001F2938B504460D4604D9162303604FF0D7
:104F5000FF3038BD426C12B152F821304BB92046B7
:104F600000F030F82A4601462046BDE8384000F0FF
:104F700017B8012B0AD0591C03D116230360012056
:104F8000E7E7002442F82540284698470020E0E75C
:104F9000024B01461868FFF7D3BF00BFC8000020CE
:104FA00038B5074D00230446084611462B60FBF731
:104FB0007DFE431C02D12B6803B1236038BD00BFC6
:104FC00064010020FBF770BE10B50C46B1F90E105D
:104FD00000F094F80028ABBF636DA3891B1823F47D
:104FE0008053ACBF6365A38110BD2DE9F0411F461E
:104FF0008B89DB0505460C46164605D5B1F90E1022
:105000000223002200F068F8A389B4F90E1023F4FB
:105010008053A38132463B462846BDE8F04100F06C
:1050200017B810B50C46B1F90E1000F055F8431C36
:10503000A38915BF606523F4805343F48053A38193
:1050400018BFA38110BDB1F90E1000F013B8000015
:1050500038B5074D04460846114600222A601A4614
:10506000FBF740FE431C02D12B6803B1236038BD1F
:105070006401002038B5064D0023044608462B6025
:10508000FBF73EFE431C02D12B6803B1236038BD01
:105090006401002038B5074D002304460846114638
:1050A0002B60FBF731FE431C02D12B6803B1236058
:1050B00038BD00BF6401002038B5064D002304460A
:1050C00008462B60FBF726FE431C02D12B6803B178
:1050D000236038BD6401002038B5074D04460846FA
:1050E000114600222A601A46FBF716FE431C02D125
:1050F0002B6803B1236038BD6401002038B5074D2B
:1051000004460846114600222A601A46FBF7DCFDD9
:10511000431C02D12B6803B1236038BD6401002019
:10512000F8B500BFF8BC08BC9E467047F8B500BF94
:08513000F8BC08BC9E46704764
:1051380000040040010000000000000000003C00E6
:10514800003001400400000000040240020000009A
:1051580000040240010006000006101600061016A2
:10516800000000000000FF0000FF0000FF0000003A
:1051780000FFFF00FFFF0000FF00FF00FFFFFF0030
:1051880020202074203D20000000000000000000C6
:105198000000000000000000000000000000000007
:1051A80000000000000000000000000000000000F7
:1051B80000000000000000000000000000000000E7
:1051C80000000000000000000000000000000000D7
:1051D80000000000000000000000000000000000C7
:1051E80000000000205072696D6974697665732F3C
:1051F80063203D20000000000000000000000000C7
:105208000000000000000000000000002054656D50
:1052180070203D2000000000000000000000000099
:105228000000000000000000000000000000000076
:105238000000000000000000000000000000000066
:105248000000000000000000000000000000000056
:105258000000000000000000000000000000000046
:105268000000000000000000000000000000000036
:1052780080000000102840587088A0B80000000086
:1052880000000000000000000000000808080808EE
:1052980008080008000000001414140000000000B2
:1052A80000000000000A0A3F1414147E2828000099
:1052B8000000081C22201C02221C080000000020FC
:1052C8005122040810224502000000001820201076
:1052D80030494A443B00000000080808000000006C
:1052E8000000000000000408081010101010080842
:1052F800040000100808040404040408081000004E
:105308000000361C7F1C360000000000000000086A
:1053180008087F08080800000000000000000000DE
:105328000000081000000000000000007F000000DE
:10533800000000000000000000000000080000005D
:1053480000000102040810204000000000001C2298
:105358002222222222221C00000000083808080805
:105368000808083E000000001C2202020408102061
:105378003E000000001C2202020C0202221C000057
:105388000000040C0C1414243E040E000000003E1F
:105398002020203C0202221C000000000C102020CB
:1053A8003C2222221C000000003E220204040808BD
:1053B8001010000000001C2222221C2222221C00A5
:1053C8000000001C2222221E020204180000000015
:1053D80000000008000000000800000000000000B5
:1053E8000800000000081000000000000408102059
:1053F800100804000000000000003E003E0000000D
:10540800000000000000100804020408100000005A
:10541800001C2202020408080008000000001E21E7
:105428004D5555554E201C0000000018080814144E
:10543800223E2277000000007E2121213E212121E9
:105448007E000000001E214040404040211E000018
:1054580000007C222121212121227C000000007FE4
:105468002120243C2420217F000000007F212024CB
:105478003C24202078000000001E21404040474185
:10548800211E00000000772222223E2222227700DD
:105498000000003E080808080808083E0000000050
:1054A8001E04040404044444380000000073222449
:1054B800242838242273000000007C1010101010DB
:1054C80010117F00000000632236362A2A22227734
:1054D80000000000672232322A26262272000000CD
:1054E800001C224141414141221C000000007E2154
:1054F80021213E20202078000000001C224141414B
:105508004141221C1B0000007E2121213E2424222F
:1055180073000000003E4140403E0101413E000052
:1055280000007F490808080808081C0000000077E8
:10553800222222222222221C00000000772222227C
:10554800141414080800000000772222222A2A2AAC
:105558001414000000007722141408141422770091
:1055680000000077222214140808081C000000001C
:105578007F420404081010217F000000001C101056
:10558800101010101010101C00000040201008040B
:1055980002010000000000001C04040404040404C8
:1055A800041C000814220000000000000000000095
:1055B8000000000000000000000000FF00001008CC
:1055C80000000000000000000000000000003C0295
:1055D8003E42423D000000006020203E2121212162
:1055E8007E000000000000003E414040413E0000B7
:1055F80000000602023E424242423F000000000014
:1056080000003E417F40413E000000000C10103C6D
:10561800101010103C000000000000003F42424201
:105628003E02023C00006020202C32222222770019
:1056380000000008000038080808083E00000000C4
:105648000400003C04040404040438000060202022
:1056580026242838246300000000180808080808D1
:1056680008083E00000000000000742A2A2A2A6B5D
:10567800000000000000006C3222222277000000A7
:10568800000000003E414141413E00000000000092
:10569800007E212121213E207000000000003F42B1
:1056A8004242423E02070000000000761910101026
:1056B8007C000000000000003E413806413E00002A
:1056C80000000010103C101010120C000000000028
:1056D800000066222222261B00000000000000773E
:1056E80022221414080000000000000077222A2A51
:1056F80014140000000000000077221C1C22770010
:10570800000000000000772222141408083000006E
:105718000000007E440810227E00000000060808F1
:1057280008083008080808060008080808080808D3
:1057380008080808080000300808080806080808CB
:105748000830000000314946000000000000000059
:1057580000001C1C1C1C1C1C1C1C1C000000FE92B5
:1057680010101E11111516000004083F111010101A
:1057780010101038000000000000000000000000B9
:10578800081000000408003E121010101038000025
:105798000000000000000000000024480000000095
:1057A80000000000000000540000000010107C10F1
:1057B80010101010100000000010107C1010107C49
:1057C800101000000000001C1C1C1C1C1C1C1C1CB5
:1057D80000000021522408102052AD1200000000E1
:1057E800F84848484E4949C9CE000000000000006A
:1057F80000040810080400000000EC4848487E49EE
:105808004949EE0000040873222424382424227312
:1058180000000000FE9210101E1111113900000046
:105828000077222222222222227F08080000207CE0
:10583800202C3222222272020600001008000000EA
:105848000000000000000000081000000000000038
:1058580000000000004824000000000000000000D4
:1058680000001224000000000000000000000000FA
:105878000000183C180000000000000000000000B4
:1058880070000000000000000000000000FC0000A4
:105898000000000000000000000000000000000000
:1058A800000000FB5551000000000000000000004F
:1058B80000000018282E4949CE0000000000000012
:1058C80000201008102000000000000000CC487ED6
:1058D8004949EE00000000040800662438242463C7
:1058E80000000000207C202C3222222277000000B9
:1058F8000000000066222222223E08080000000064
:1059080000000000000000000036087F222222224A
:105918001E02221C000000000036087F2222221EE0
:1059280002221C00001E040404040444443800003D
:105938000000413E2222223E410000000001033FB8
:105948001010101010101038000000000808080887
:105958000800080808080800001E22504824120AF7
:105968004478000022007F2120243C2420217F004D
:105978000000001C224D51514D221C000000000067
:105988001E2140447C4440211E000000000000000D
:10599800001122442211000000000000003E020015
:1059A8000000000000000000000000007F00000070
:1059B800000000001C2259555955221C00000022E5
:1059C800003E080808080808083E000000000814FF
:1059D80008000000000000000000000808087F0818
:1059E8000808007F000000003E08080808080808AA
:1059F8003E0000000008000038080808083E0000C3
:105A0800000000021E1010101010380000000000E6
:105A1800000022222222223C204000003F7A7A7A8B
:105A28003A0A0A0A1B0000000000000000000800F3
:105A38000000000000002200003E417F40413E007F
:105A4800000000C6446777544F4C44C6000000006D
:105A58000000003E417840413E0000000000000088
:105A6800004422112244000000000400003C040409
:105A7800040404043800003E4140403E0101413E18
:105A8800000000000000003E413806413E000000D2
:105A98000024000038080808083E0000000002063C
:105AA8000A0A121E222277000000007F2120203ED1
:105AB8002121217E000000007E2121213E2121217B
:105AC8007E000000003F1110101010101038000068
:105AD80000007F222222222222227F414100007FD1
